:100000000C943E000C945B000C945B000C945B0021
:100010000C945B000C945B000C945B000C945B00F4
:100020000C945B000C945B000C945B000C945B00E4
:100030000C945B000C945B000C945B000C945B00D4
:100040000C945B000C945B000C945B000C945B00C4
:100050000C9450050C945B000C945B000C945B00BA
:100060000C945B000C945B000C945B000C945B00A4
:100070000C94F5040C945B000C945B0011241FBEDF
:10008000CFEFD0E1DEBFCDBF12E0A0E0B1E0ECECFD
:10009000F4E102C005900D92AA3AB107D9F712E037
:1000A000AAEAB2E001C01D92A03CB107E1F70E94AC
:1000B00084050C94640A0C9400008CE08093C400C6
:1000C000E1ECF0E08081886980830895982F809129
:1000D000C00085FFFCCF9093C6000895FC0107C0C7
:1000E0008091C00085FFFCCF31969093C60090812F
:1000F0009923B1F708958091C00085FFFCCF8FEE62
:100100008093C6008091C00085FFFCCF81E0809382
:10011000C6008091C00085FFFCCF8FEF8093C600A2
:100120008091C00085FFFCCF8FEF8093C600809147
:10013000C00085FFFCCF8FEF8093C6008091C00088
:1001400085FFFCCF8FEF8093C6008091C00085FFB4
:10015000FCCF81E08093C6008091C00085FFFCCF7A
:100160001092C6008091C00085FFFCCF83E0809391
:10017000C6008091C00085FFFCCF8DE18093C60052
:100180008091C00085FFFCCF1092C6008091C00016
:1001900085FFFCCF81E28093C60084EF91E028ECDC
:1001A00030E0F9013197F1F70197D9F7089580917F
:1001B000C00085FFFCCF8FEE8093C6008091C00009
:1001C00085FFFCCF81E08093C6008091C00085FF51
:1001D000FCCF8FEF8093C6008091C00085FFFCCFDD
:1001E0008FEF8093C6008091C00085FFFCCF8FEF1A
:1001F0008093C6008091C00085FFFCCF8FEF809375
:10020000C6008091C00085FFFCCF81E08093C600CE
:100210008091C00085FFFCCF1092C6008091C00085
:1002200085FFFCCF83E08093C6008091C00085FFEE
:10023000FCCF8DE08093C6008091C00085FFFCCF8D
:100240001092C6008091C00085FFFCCF81E18093B1
:10025000C60084EF91E028EC30E0F9013197F1F726
:100260000197D9F708958091C00085FFFCCF8FEEEC
:100270008093C6008091C00085FFFCCF81E0809311
:10028000C6008091C00085FFFCCF8FEF8093C60031
:100290008091C00085FFFCCF8FEF8093C6008091D6
:1002A000C00085FFFCCF8FEF8093C6008091C00017
:1002B00085FFFCCF8FEF8093C6008091C00085FF43
:1002C000FCCF81E08093C6008091C00085FFFCCF09
:1002D0001092C6008091C00085FFFCCF83E0809320
:1002E000C6008091C00085FFFCCF81E08093C600EE
:1002F0008091C00085FFFCCF1092C6008091C000A5
:1003000085FFFCCF85E08093C60084EF91E028EC68
:1003100030E0F9013197F1F70197D9F7089580910D
:10032000C00085FFFCCF8FEE8093C6008091C00097
:1003300085FFFCCF81E08093C6008091C00085FFDF
:10034000FCCF8FEF8093C6008091C00085FFFCCF6B
:100350008FEF8093C6008091C00085FFFCCF8FEFA8
:100360008093C6008091C00085FFFCCF8FEF809303
:10037000C6008091C00085FFFCCF81E08093C6005D
:100380008091C00085FFFCCF1092C6008091C00014
:1003900085FFFCCF84E08093C6008091C00085FF7C
:1003A000FCCF82E08093C6008091C00085FFFCCF27
:1003B00081E08093C6008091C00085FFFCCF109241
:1003C000C6008091C00085FFFCCF88E08093C60006
:1003D00084EF91E028EC30E0F9013197F1F70197D3
:1003E000D9F708958091C00085FFFCCF8FEE8093F0
:1003F000C6008091C00085FFFCCF81E08093C600DD
:100400008091C00085FFFCCF8FEF8093C600809164
:10041000C00085FFFCCF8FEF8093C6008091C000A5
:1004200085FFFCCF8FEF8093C6008091C00085FFD1
:10043000FCCF8FEF8093C6008091C00085FFFCCF7A
:1004400081E08093C6008091C00085FFFCCF1092B0
:10045000C6008091C00085FFFCCF84E08093C60079
:100460008091C00085FFFCCF82E08093C600809120
:10047000C00085FFFCCF82E08093C6008091C00061
:1004800085FFFCCF1092C6008091C00085FFFCCF95
:1004900089E08093C60084EF91E028EC30E0F90118
:1004A0003197F1F70197D9F708958091C00085FF42
:1004B000FCCF8FEE8093C6008091C00085FFFCCFFB
:1004C00081E08093C6008091C00085FFFCCF8FEF54
:1004D0008093C6008091C00085FFFCCF8FEF809392
:1004E000C6008091C00085FFFCCF8FEF8093C600CF
:1004F0008091C00085FFFCCF8FEF8093C600809174
:10050000C00085FFFCCF81E08093C6008091C000D1
:1005100085FFFCCF1092C6008091C00085FFFCCF04
:1005200083E08093C6008091C00085FFFCCF85E00A
:100530008093C6008091C00085FFFCCF1092C6005A
:100540008091C00085FFFCCF89E08093C60084EFD6
:1005500091E028EC30E0F9013197F1F70197D9F7F4
:1005600008958091C00085FFFCCF8FEE8093C60078
:100570008091C00085FFFCCF81E08093C600809110
:10058000C00085FFFCCF8FEF8093C6008091C00034
:1005900085FFFCCF8FEF8093C6008091C00085FF60
:1005A000FCCF8FEF8093C6008091C00085FFFCCF09
:1005B0008FEF8093C6008091C00085FFFCCF81E063
:1005C0008093C6008091C00085FFFCCF1092C600CA
:1005D0008091C00085FFFCCF88E08093C6008091A9
:1005E000C00085FFFCCF84E08093C6008091C000EE
:1005F00085FFFCCF81E08093C6008091C00085FF1D
:10060000FCCF1092C6008091C00085FFFCCF1092F5
:10061000C6008091C00085FFFCCF1092C60080917B
:10062000C00085FFFCCF8FE08093C6008091C000A2
:1006300085FFFCCF1092C6008091C00085FFFCCFE3
:100640008DE18093C60084EF91E028EC30E0F90161
:100650003197F1F70197D9F708958091C00085FF90
:10066000FCCF8FEE8093C6008091C00085FFFCCF49
:1006700081E08093C6008091C00085FFFCCF8FEFA2
:100680008093C6008091C00085FFFCCF8FEF8093E0
:10069000C6008091C00085FFFCCF8FEF8093C6001D
:1006A0008091C00085FFFCCF8FEF8093C6008091C2
:1006B000C00085FFFCCF81E08093C6008091C00020
:1006C00085FFFCCF1092C6008091C00085FFFCCF53
:1006D00087E08093C6008091C00085FFFCCF8CE04E
:1006E0008093C6008091C00085FFFCCF1092C600A9
:1006F0008091C00085FFFCCF83E08093C60080918D
:10070000C00085FFFCCF1092C6008091C00085FF1D
:10071000FCCF81E08093C6008091C00085FFFCCFB4
:100720001092C6008091C00085FFFCCF88E18093C5
:10073000C60084EF91E028EC30E0F9013197F1F741
:100740000197D9F7089588B980E48BB980ED97E0D7
:100750000197F1F71BB8089588E390E00E94A30386
:100760008CE090E00E94A30381E090E00E94A3034C
:1007700080E890E00E94A30380E197E228EC30E05B
:10078000F9013197F1F70197D9F7089588B920ED6C
:1007900037E0C9010197F1F780EC8BB9C9010197E6
:1007A000F1F780E88BB9C9010197F1F786E088B9C4
:1007B00080E48BB9C9010197F1F71BB80895CF9375
:1007C000DF93EC0103C021960E94C6038881882331
:1007D000D1F7DF91CF910895806680937C0087ECFC
:1007E00080937A0080E29EE40197F1F7809179008E
:1007F0000895FF920F93CF93DF9381B1806581B904
:1008000081B18F7581B9149A169820E23EE4C9012E
:100810000197F1F785E680937C0087EC80937A005E
:10082000C9010197F1F74091790088EE93E028EC37
:1008300030E0F9013197F1F70197D9F781B1806A7A
:1008400081B981B18F7A81B9179A159820E23EE477
:10085000C9010197F1F784E680937C0087EC8093CF
:100860007A00C9010197F1F70091790088EE93E0D1
:1008700028EC30E0F9013197F1F70197D9F7842F8F
:1008800084518233F0F4802F8E5A843330F480E028
:1008900091E00E94DF0381E385C0802F8E568C3368
:1008A00030F482E091E00E94DF0382E37BC00053DA
:1008B000043308F076C084E091E00E94DF0383E314
:1008C00071C0842F86548233F0F4802F8A5A873384
:1008D00030F486E091E00E94DF0384E363C0802F60
:1008E0008E568C3330F488E091E00E94DF0385E37C
:1008F00059C008520D3308F054C08AE091E00E94BC
:10090000DF0386E34FC0842F82588233E8F4802FC0
:100910008B5A873330F48CE091E00E94DF0387E349
:1009200041C0802F8E568C3330F48EE091E00E94CF
:10093000DF0388E337C008520C3398F580E191E07B
:100940000E94DF0389E32EC0445B4B3450F5802FB7
:100950008B5A8733E8F481E088B980E4F82EFBB83D
:10096000C0EDD7E0CE010197F1F71BB880E888B958
:10097000FBB8CE010197F1F71BB882E191E00E942C
:10098000DF0380EC88B9FBB8CE010197F1F71BB803
:100990000E560C3330F483E291E00E94DF0380E3D3
:1009A00001C080E0DF91CF910F91FF90089583E324
:1009B0008093CC00E9ECF0E0808188698083089521
:1009C000982F8091C80085FFFCCF9093CE000895AA
:1009D000FC0107C08091C80085FFFCCF3196909341
:1009E000CE0090819923B1F708951F920F920FB610
:1009F0000F921124FF920F931F932F933F934F93C6
:100A00005F936F937F938F939F93AF93BF93EF9376
:100A1000FF938091CE0090E09093BF028093BE023E
:100A200081E088B990E4F92EFBB800ED17E0C80129
:100A30000197F1F71BB880E888B9FBB8C8010197A6
:100A4000F1F71BB885E291E00E94DF0380EC88B9E2
:100A5000FBB8C8010197F1F71BB88091BE029091D5
:100A6000BF020E94C60380E197E228EC30E0F90162
:100A70003197F1F70197D9F7FF91EF91BF91AF91BE
:100A80009F918F917F916F915F914F913F912F91A6
:100A90001F910F91FF900F900FBE0F901F90189510
:100AA0001F920F920FB60F9211248F939F93EF9383
:100AB000FF93E091B802F091B9028091C600E6552B
:100AC000FD4F80838091B8029091B9020196909376
:100AD000B9028093B8028091B8029091B9020C9744
:100AE00050F081E090E09093BD028093BC021092A0
:100AF000B9021092B802FF91EF919F918F910F90E0
:100B00000FBE0F901F9018952F923F924F925F92B9
:100B10006F927F928F929F92AF92BF92CF92DF920D
:100B2000EF92FF920F931F93DF93CF93CDB7DEB772
:100B300060970FB6F894DEBF0FBECDBF9FEF97B999
:100B400080EF8AB911B894B9809153029091540200
:100B5000A0915502B09156028D839E83AF83B887D2
:100B60008091580290915902A0915A02B0915B0273
:100B700089879A87AB87BC8780915D0290915E02DE
:100B8000A0915F02B09160028D879E87AF87B88B7E
:100B90008CE08093C4008091C10088698093C1007B
:100BA00083E38093CC008091C90088698093C90059
:100BB00078940E94AC0380E888B900E4F02EFBB87A
:100BC00000ED17E0C8010197F1F71BB883E391E04E
:100BD0000E94DF0380EC88B9FBB8C8010197F1F7E8
:100BE0001BB815B8F9C380E090E011E0612E712CBC
:100BF0001FC181E090E0B8EC8B2E912C19C11092AE
:100C0000B7021092B60210C0E091B602F091B7029E
:100C1000E80DF91D10828091B6029091B7020196FD
:100C20009093B7028093B6028091B6029091B7027A
:100C3000049750F31092B7021092B6021BC00E94A4
:100C4000F9038823B9F0E091B602F091B702E80DFC
:100C5000F91D80838091B6029091B702019690931E
:100C6000B7028093B60280E197E2F2013197F1F783
:100C70000197D9F78091B6029091B7020497F8F2E4
:100C8000A8B8BBB8C7010197F1F71BB880E888B9CD
:100C9000BBB8C7010197F1F71BB883E391E00E944D
:100CA000DF0380EC88B9BBB8C7010197F1F71BB827
:100CB00085E491E00E94DF0380E29EE4F201319737
:100CC000F1F70197D9F7CC24C394A8B860E4D62EE5
:100CD000BBB800ED17E0C7010197F1F71BB8CE01D3
:100CE0000596B40144E050E00E94560A009731F5A1
:100CF000C8B8DBB8C8010197F1F71BB880E888B91C
:100D0000DBB8C8010197F1F71BB882E591E00E94BA
:100D1000DF0380EC88B9DBB8C8010197F1F71BB895
:100D20008BE591E00E94DF0380E395E728EC30E05B
:100D3000F9013197F1F70197D9F75BCFCE01099609
:100D4000B40144E050E00E94560A009731F5C8B85B
:100D5000DBB8C8010197F1F71BB880E888B9DBB8A8
:100D6000C8010197F1F71BB882E591E00E94DF030B
:100D700080EC88B9DBB8C8010197F1F71BB881E6B0
:100D800091E00E94DF0380E395E728EC30E0F90171
:100D90003197F1F70197D9F72CCFC101B40144E0A5
:100DA00050E00E94560A009731F5C8B8DBB8C80178
:100DB0000197F1F71BB880E888B9DBB8C801019743
:100DC000F1F71BB882E591E00E94DF0380EC88B95F
:100DD000DBB8C8010197F1F71BB889E691E00E94E2
:100DE000DF0380E395E728EC30E0F9013197F1F774
:100DF0000197D9F7FECEA8B8BBB8C7010197F1F7A4
:100E00001BB880E888B9BBB8C7010197F1F71BB8D8
:100E100083E391E00E94DF0380EC88B9BBB8C7018F
:100E20000197F1F71BB880E791E00E94DF03E7CE5E
:100E3000019709F089C180E888B950E4F52EFBB824
:100E400000ED17E0C8010197F1F71BB88FE791E0BB
:100E50000E94DF0380EC88B9FBB8C8010197F1F765
:100E60001BB88EE891E00E94DF0380E29EE4F4016B
:100E70003197F1F70197D9F74EC00E94330188E806
:100E800093E1F4013197F1F70197D9F78091BC0212
:100E90009091BD02019709F048C001E010E020E008
:100EA00030E0F901E655FD4FD901AE59BD4F9081B3
:100EB0008C91981711F000E010E02F5F3F4F2C301D
:100EC000310579F701301105A9F4B8B8DBB8C701CD
:100ED0000197F1F71BB8C8B8DBB8C7010197F1F764
:100EE0001BB88BE991E00E94DF031093BB020093D3
:100EF000BA021BC0B8B8DBB8C7010197F1F71BB83D
:100F0000C8B8DBB8C7010197F1F71BB88CEA91E0CC
:100F10000E94DF030AC0BB24B39440E4D42E30ED1A
:100F2000E32E37E0F32E20E8C22E8091BA02909192
:100F3000BB02892B09F4A1CF0E948F0188E893E1BD
:100F4000F4013197F1F70197D9F70E94550288E82B
:100F500093E1F4013197F1F70197D9F7DD24D394A8
:100F6000D8B890E4F92EFBB800ED17E0C80101975E
:100F7000F1F71BB880E8E82EE8B8FBB8C801019784
:100F8000F1F71BB886EB91E00E94DF030E94B102EB
:100F9000D8B8FBB8C8010197F1F71BB8E8B8FBB89F
:100FA000C8010197F1F71BB88091B50264E60E9471
:100FB000360A292F892F90E06AE070E00E94420AE9
:100FC0008C01005D1F4F822F90E06AE070E00E946C
:100FD000420A862F805D0E94C603802F0E94C603AE
:100FE00088E893E1F4013197F1F70197D9F70133DC
:100FF000110549F581E088B900E4F02EFBB800ED59
:1010000017E0C8010197F1F71BB880E888B9FBB871
:10101000C8010197F1F71BB880EC91E00E94DF0353
:1010200080EC88B9FBB8C8010197F1F71BB88FECC9
:1010300091E00E94DF0380E395E7F4013197F1F737
:101040000197D9F7D0CD0233110549F581E088B970
:1010500010E4F12EFBB800ED17E0C8010197F1F79D
:101060001BB880E888B9FBB8C8010197F1F71BB835
:1010700080EC91E00E94DF0380EC88B9FBB8C801E6
:101080000197F1F71BB88AED91E00E94DF0380E33E
:1010900095E7F4013197F1F70197D9F7A4CD033320
:1010A000110549F581E088B9B0E4FB2EFBB800EDED
:1010B00017E0C8010197F1F71BB880E888B9FBB8C1
:1010C000C8010197F1F71BB880EC91E00E94DF03A3
:1010D00080EC88B9FBB8C8010197F1F71BB886EE20
:1010E00091E00E94DF0380E395E7F4013197F1F787
:1010F0000197D9F778CD81E088B9A0E4FA2EFBB842
:1011000000ED17E0C8010197F1F71BB880E888B936
:10111000FBB8C8010197F1F71BB883EF91E00E947B
:10112000DF0380EC88B9FBB8C8010197F1F71BB861
:101130008EEF91E00E94DF0380E29EE4F40131979C
:10114000F1F70197D9F78FC181E06816710409F0B2
:101150008AC181E088B9F0E4FF2EFBB800ED17E00A
:10116000C8010197F1F71BB880E888B9FBB8C8013E
:101170000197F1F71BB886E092E00E94DF0380EC54
:1011800088B9FBB8C8010197F1F71BB882E192E07A
:101190000E94DF038FEF9FEFF4013197F1F7019782
:1011A000D9F78091BE029091BF02892BD1F3809133
:1011B000BE029091BF02C19709F055C081E088B985
:1011C000E0E4FE2EFBB800ED17E0C8010197F1F74F
:1011D0001BB880E888B9FBB8C8010197F1F71BB8C4
:1011E0008DE192E00E94DF0380EC88B9FBB8C80172
:1011F0000197F1F71BB888E292E00E94DF0380E2DA
:101200009EE428EC30E0F9013197F1F70197D9F726
:1012100081E088B970E4F72EFBB800ED17E0C80153
:101220000197F1F71BB880E888B9FBB8C8010197AE
:10123000F1F71BB883E392E00E94DF0380EC88B9EA
:10124000FBB8C8010197F1F71BB88AE392E00E944E
:10125000DF0380E29EE428EC30E0F9013197F1F7FA
:101260000197D9F7B7C08091BE029091BF02C29793
:1012700009F055C081E088B960E4F62EFBB800EDB6
:1012800017E0C8010197F1F71BB880E888B9FBB8EF
:10129000C8010197F1F71BB88DE192E00E94DF03CE
:1012A00080EC88B9FBB8C8010197F1F71BB88AED4B
:1012B00091E00E94DF0380E29EE428EC30E0F90137
:1012C0003197F1F70197D9F781E088B950E4F52E0D
:1012D000FBB800ED17E0C8010197F1F71BB880E8F3
:1012E00088B9FBB8C8010197F1F71BB883E392E016
:1012F0000E94DF0380EC88B9FBB8C8010197F1F7C1
:101300001BB88AE392E00E94DF0380E29EE428ECAF
:1013100030E0F9013197F1F70197D9F75BC080917F
:10132000BE029091BF02C39709F06DC081E088B9F9
:1013300040E4F42EFBB800ED17E0C8010197F1F787
:101340001BB880E888B9FBB8C8010197F1F71BB852
:101350008DE192E00E94DF0380EC88B9FBB8C80100
:101360000197F1F71BB886EE91E00E94DF0380E25F
:101370009EE428EC30E0F9013197F1F70197D9F7B5
:1013800081E088B930E4F32EFBB800ED17E0C80126
:101390000197F1F71BB880E888B9FBB8C80101973D
:1013A000F1F71BB883E392E00E94DF0380EC88B979
:1013B000FBB8C8010197F1F71BB88AE392E00E94DD
:1013C000DF0380E29EE428EC30E0F9013197F1F789
:1013D0000197D9F780EA85B9662477244E010894ED
:1013E000811C911CA8EC4A2E512CAA24A394F0E451
:1013F000BF2EE0EDEE2EE7E0FE2E7DE0272E312C15
:101400002C0E3D1EFCCB8091BE029091BF02C09776
:1014100051F581E088B920E4F22EFBB800ED17E029
:10142000C8010197F1F71BB880E888B9FBB8C8017B
:101430000197F1F71BB882E492E00E94DF0380EC91
:1014400088B9FBB8C8010197F1F71BB887E492E0AF
:101450000E94DF0380E395E7F4013197F1F70197EC
:10146000D9F780EA85B980E090E0E2CC991B79E079
:1014700004C0991F961708F0961B881F7A95C9F724
:1014800080950895AA1BBB1B51E107C0AA1FBB1F73
:10149000A617B70710F0A61BB70B881F991F5A9500
:1014A000A9F780959095BC01CD010895FB01DC0161
:1014B0004150504030F08D910190801919F4002076
:0C14C000B9F7881B990B0895F894FFCF32
:1014CC00310032003300340035003600370038006C
:1014DC003900456E7465722050617373776F726456
:1014EC00203A00300052656365697665642044617A
:1014FC00746100456E7465722050617373776F72FE
:10150C0064203A2000436865636B696E672E2E2E4B
:10151C002E0057656C636F6D6520004F6D6B6172AB
:10152C00005368726176616E0056697368616C0075
:10153C0057726F6E672050617373776F72640050CF
:10154C00617373776F7264204D61746368005075BA
:10155C00742046696E676572203E0046696E676549
:10156C007220436F6C6C6563746564004E6F20462B
:10157C00696E67657200736561726368696E670096
:10158C0046696E676572206D617463686564007787
:10159C00697468206F6E6B6172007769746820766D
:1015AC00697368616C00776974682073687261761E
:1015BC00616E0046696E676572204E6F74004D61F6
:1015CC0074636865640057616974696E6720666F3F
:1015DC007200666163652049442E2E2E00466163BD
:1015EC0065204D617463680077697468204F6E6B79
:1015FC00617200416363657373004772616E746559
:10160C00640046616365004E6F74206D617463689D
:10161C0065640031333234003435333700393036B9
:10162C003300EF01FFFFFFFF07000300000AEF018B
:10163C00FFFFFFFF07000300000AEF01FFFFFFFFA2
:10164C0007000300000AEF01FFFFFFFF0700030084
:10165C00000AEF01FFFFFFFF07000300000AEF0184
:0A166C00FFFFFFFF07000300000A64
:00000001FF
